:1000000052EF10F05342493D2000534D493D20002E
:100010005343493D20005343443D2000534D443D4C
:1000200020005342443D2000697A713D2000646500
:10003000723D20006572726F723D200070726F6DAC
:1000400000008E0E006ED9C001F0D8C002F0036A25
:10005000015209E102C001F0026A080E005E01527D
:1000600002E1006A08D0D89001BE04D00236013601
:100070000006F9D7019E1200D451D8B471D0006E99
:10008000D851D8B46DD0002604E3810E002668E272
:1000900004D07F0E005E64E363E0D5C0DCF0D9518C
:1000A000DC1BD58FD98FD751DB03F4CFDEF0D651CF
:1000B000DA03F4CF03F0F3CFDDF0DB03F350DE27F8
:1000C000F450DD23000E0322D751DA03F350DE276C
:1000D000F450DD23000E026A03220222D551DB0315
:1000E000F350DD27F4500322000E0222D551DA032B
:1000F000F3500326F4500222000E016A0122D75168
:10010000D903F350DD27F4500322000E022201220E
:10011000D651D903F3500326F4500222000E0122D7
:10012000D551D903F3500226F4500122002A01BE12
:1001300005D0DD370336023601360006000EDDAF8E
:100140000AD0032A02220122015005E1025003E1F4
:10015000035001E1002ADCBF018EDCAF019E04D018
:10016000006A016A026A036A1200CA51D8B4A5D0B3
:10017000D66FCE51D8B4A1D0D65F05E37F0ED62777
:10018000D8B09BD006D0810ED65FD8A096D0D8B478
:1001900094D0D6C000F0016A026A036AD56BCBC066
:1001A000D4F0D48FCCC0D3F0CDC0D2F0190ED66F1E
:1001B000D151D25F0DE2010ED35F0AE2D45F08E2B3
:1001C000D55F06E2D52BD42BD32BD151D22728D003
:1001D000D051D35F12E2010ED45F0FE2D55F0DE282
:1001E000D52BD42BD051D327D151D22719E3D32BE0
:1001F00017E1D42B15E1D52B13D0CF518009D45F53
:100200000EE2010ED55F0BE2D52BCF518009D4272A
:10021000D051D327E9E3D42BE7E1D52BE5D70380F1
:10022000D62F01D00BD0D890D237D337D437D5378B
:10023000D890033602360136D737BAD7D7A106D0C1
:10024000D890013202320332D73302D0000635E0B3
:10025000D7BF1ED0D890D237D337D437D537D15166
:10026000D25F07E2010ED35F04E2D45F02E2D55F02
:100270001AE3D051D35F05E2010ED45F02E2D55FED
:1002800012E3CF518009D45F03E2010ED55F0BE387
:10029000032A09E1022A07E1012A05E1002A0DE00B
:1002A000013202320332CBC0D6F0CF51D61BD6AFCB
:1002B00002D0018E06D0019E04D0006A016A026A53
:1002C000036A1200D5C0DCF0D951DC1BDCAF05D0CD
:1002D000D894D890D5BFD8802FD0D5C0DCF0D8C066
:1002E000DDF0D451DD5F06E0DCAF26D0D850010A46
:1002F000D86E22D0D9C0DDF0D551DD5F06E0DCAF8D
:100300001BD0D850010AD86E17D0DAC0DDF0D65114
:10031000DD5F06E0DCAF10D0D850010AD86E0CD0FB
:10032000DBC0DDF0D751DD5F06E0DCAF05D0D85093
:10033000010AD86E01D0D8901200800ED8B2DD1B11
:10034000E26BE36BD9C0E1F0DD51E11BD851D8B4C9
:10035000DCD0E06F006EDC51D8B4E0D0E05FD8B400
:1003600081D03DE3DDC0E6F0E68FDEC0E5F0DFC022
:10037000E4F0E36BD890E633E533E433E333E02F86
:10038000F8D7E1AF03D0E281DDD0E291E091E289DC
:10039000EA6ADB0EE96EE9D0E299E1BF0AD0E0A19A
:1003A00013D0E633E533E433E333002AD8B4C5D0C1
:1003B0000BD0E6BF0CD0D890E337E437E537E6370B
:1003C0000006D8B4BAD0F5D7E28D6BD0E29DD9C083
:1003D000E1F0D9AF02D0E68FA9D0E69FA7D0DCC06C
:1003E000E0F0DCC000F0D851E05FD9C0E6F0E68F65
:1003F000DAC0E5F0DBC0E4F0E36BD890E633E53338
:10040000E433E333E02FF8D7E1AF03D0E2839AD0AF
:10041000E293E091E28BEA6ADF0EE96EA6D0E29BFE
:10042000E1BF0AD0E0A113D0E633E533E433E33390
:10043000002AD8B482D00BD0E6BF0CD0D890E337D6
:10044000E437E537E6370006D8B477D0F5D7E28F42
:1004500028D0E29FDDC0E1F0DDAF02D0E68F66D0AC
:10046000E69F64D0DDC0E6F0E68FDEC0E5F0DFC0D9
:10047000E4F0E1AF04D0E69FE28564D0E295E36B5F
:10048000E091EA6ADB0EE96E70D0E1BF1CD0D9C002
:10049000E1F0E0A106D0E633E533E433E333002AAC
:1004A0004CE0E3AF0BD0E42B09E1E52B07E1E62BB1
:1004B00005E1E633E533E433002A3FE0E2BD86D7C9
:1004C000E2BFC7D71CD0800EE61BE6AF04D03AD0FF
:1004D000DDC0E1F00AD0D9C0E1F0E65306E1E55312
:1004E00004E1E45302E1006A21D0E6BF08D0D890CD
:1004F000E337E437E537E637002EF7D71ED0E1AF14
:1005000002D0E68F13D0E69F11D0DCC000F0DDC032
:10051000E6F0DEC0E5F0DFC0E4F008D0D8C000F0BF
:10052000D9C0E6F0DAC0E5F0DBC0E4F0E6C001F0E7
:10053000E5C002F0E4C003F034D0006A016A026A48
:10054000036A2FD0E36BE41FE51FE61FE31FE32BD5
:1005500005E1E42B03E1E52B01E1E62BE2B115D740
:10056000E2B356D7E2B58AD7B3D7EF50E42705E315
:10057000E52B03E1E62BD8B4E081ED52EF50E527FF
:1005800003E3E62BD8B4E081ED52EF50EFBE01D08B
:10059000800AE627D8B0E081E2B9FED6E2BB3FD7B9
:1005A00074D71200CA51B608CA6F036ACBC0CEF026
:1005B000CB8FD890CB33CC33CD33033202320132E0
:1005C0000032CA2FF6D7CEAF0BD0001E011E021E7E
:1005D000031E002AD8B4012AD8B4022AD8B4032AA8
:1005E0001200B60E006E036A026A016ACA51CB118C
:1005F000CC11CD1102E1006A0DD0D89001BE09D016
:10060000CA37CB37CC37CD37033602360136002E0A
:10061000F4D7019E12008E0E006ED451005ED5C03C
:1006200002F0D6C001F0028E005209E0D8900252CA
:1006300002E1015204E002320132002EF7D7D5AFB9
:1006400005D0011E021E012AD8B4022A12002A6A0D
:100650002A500408D8A062D22A34006E0036FC0E5C
:100660000016C250C30B0010C26EC282C2B2FED7C7
:10067000C4CF03F0C350FF0A010F006E040E0356EF
:1006800000C0D8F003C0D9F0DCDC03C02EF002C0FB
:100690002DF001C02CF000C02BF02A50040DF350B7
:1006A000036A2F0FE96E000E0320EA6E2EC0D7F00A
:1006B0002DC0D6F02CC0D5F02BC0D4F0DB6BDA6B9C
:1006C0007A0ED96F880ED86FD7DC03C0C9F002C08C
:1006D000C8F001C0C7F000C0C6F003C0CDF002C032
:1006E000CCF001C0CBF000C0CAF0D16BD06BCF6BA7
:1006F000890ECE6F3ADD00C0EFFF01C0ECFF02C0F3
:10070000ECFF03C0ECFF2A50040DF350036A2F0FD7
:10071000E96E000E0320EA6EEFCFC4F0ECCFC5F017
:10072000ECCFC6F0ECCFC7F02A50040DF350036AAB
:10073000470FE96E000E0320EA6EEFCF00F0ECCF1A
:1007400001F0ECCF02F0ECCF03F0C7C0D7F0C6C089
:10075000D6F0C5C0D5F0C4C0D4F003C0DBF002C0F1
:10076000DAF001C0D9F000C0D8F0ACDD29E32A509E
:10077000040DF350036A470F016E000E032201C0FF
:10078000C4F003C0C5F02A50040DF350036A2F0FC4
:10079000E96E000E0320EA6EEFCF00F0ECCF01F01F
:1007A000ECCF02F0ECCF03F0C5C0EAFFC4C0E9FF14
:1007B00000C0EFFF01C0ECFF02C0ECFF03C0ECFF84
:1007C0002A50040DF350036A2F0FE96E000E032028
:1007D000EA6EEFCFC4F0ECCFC5F0ECCFC6F0ECCFB3
:1007E000C7F02A50040DF350036A5F0FE96E000E44
:1007F0000320EA6EEFCF00F0ECCF01F0ECCF02F077
:10080000ECCF03F003C0D7F002C0D6F001C0D5F0A2
:1008100000C0D4F0C7C0DBF0C6C0DAF0C5C0D9F064
:10082000C4C0D8F04FDD29E32A50040DF350036A09
:100830005F0F016E000E032201C0C4F003C0C5F0BB
:100840002A50040DF350036A2F0FE96E000E0320A7
:10085000EA6EEFCF00F0ECCF01F0ECCF02F0ECCF7E
:1008600003F0C5C0EAFFC4C0E9FF00C0EFFF01C04C
:10087000ECFF02C0ECFF03C0ECFF2A50040DF35064
:10088000036A2F0FE96E000E0320EA6EEFCFC4F06B
:10089000ECCFC5F0ECCFC6F0ECCFC7F02A50040D7A
:1008A000F350036A470FE96E000E0320EA6EEFCFA4
:1008B00000F0ECCF01F0ECCF02F0ECCF03F0EACF88
:1008C000C9F0E9CFC8F0D882C7C0DBF0C6C0DAF003
:1008D000C5C0D9F0C4C0D8F003C0DFF002C0DEF05C
:1008E00001C0DDF000C0DCF028DDC9C0EAFFC8C0EF
:1008F000E9FF03C0CDF002C0CCF001C0CBF000C0D6
:10090000CAF050DE03C0AFF002C0AEF001C0ADF0DF
:1009100000C0ACF0AFC0CDF0AEC0CCF0ADC0CBF0FD
:10092000ACC0CAF05EDE03C0D7F002C0D6F001C092
:10093000D5F000C0D4F0DB6BDA6B7A0ED96F880E7D
:10094000D86F3CEC00F003C0CDF002C0CCF001C089
:10095000CBF000C0CAF026DE03C0AFF002C0AEF09C
:1009600001C0ADF000C0ACF02A50040DF350036A92
:100970005F0FE96E000E0320EA6EEFCFC4F0ECCFFC
:10098000C5F0ECCFC6F0ECCFC7F02A50040DF35001
:10099000036A470FE96E000E0320EA6EEFCF00F006
:1009A000ECCF01F0ECCF02F0ECCF03F0EACFC9F0CE
:1009B000E9CFC8F0D882C7C0DBF0C6C0DAF0C5C046
:1009C000D9F0C4C0D8F003C0DFF002C0DEF001C02F
:1009D000DDF000C0DCF0B1DCC9C0EAFFC8C0E9FF4F
:1009E00003C0CDF002C0CCF001C0CBF000C0CAF013
:1009F000D9DD03C0B3F002C0B2F001C0B1F000C055
:100A0000B0F0AFC0CDF0AEC0CCF0ADC0CBF0ACC05C
:100A1000CAF0E7DD03C0C7F002C0C6F001C0C5F0F0
:100A200000C0C4F0B3C0CDF0B2C0CCF0B1C0CBF0C8
:100A3000B0C0CAF0D6DDC7C0CDF0C6C0CCF0C5C0CE
:100A4000CBF0C4C0CAF003C0D1F002C0D0F001C0E6
:100A5000CFF000C0CEF0B5EC00F003C0B7F002C09C
:100A6000B6F001C0B5F000C0B4F02A50040DF35048
:100A7000036A2F0FE96E000E0320EA6EB7C0D7F0AD
:100A8000B6C0D6F0B5C0D5F0B4C0D4F0C4DD02C055
:100A9000D9F001C0D8F021EC00F000C0EFFF01C098
:100AA000ECFF02C0ECFF03C0ECFF2A50040DF35032
:100AB000036A2F0FE96E000E0320EA6EEFCFC4F039
:100AC000ECCFC5F0ECCFC6F0ECCFC7F005C0D9F045
:100AD00004C0D8F021EC00F0C7C0D7F0C6C0D6F0F3
:100AE000C5C0D5F0C4C0D4F003C0DBF002C0DAF05A
:100AF00001C0D9F000C0D8F062EC01F00DE32A503B
:100B0000040DF350036A2F0FE96E000E0320EA6E06
:100B1000EF6AEC6AEC6AEC6A2A2A9AD5200E016E1A
:100B2000C250C30B0110C26EC282C2B2FED7C4CF84
:100B300003F0C350FF0A010F006E040E035600C0FD
:100B4000D8F003C0D9F021EC00F003C02EF002C0B1
:100B50002DF001C02CF000C02BF02EC0D7F02DC01E
:100B6000D6F02CC0D5F02BC0D4F0DB6BDA6B7A0E4C
:100B7000D96F880ED86F3CEC00F003C0C7F002C0FC
:100B8000C6F001C0C5F000C0C4F003C0CDF002C083
:100B9000CCF001C0CBF000C0CAF0D16BD06BCF6BF2
:100BA000890ECE6FB5EC00F003C046F002C045F0F0
:100BB00001C044F000C043F046C0D7F045C0D6F0B5
:100BC00044C0D5F043C0D4F05EC0DBF05DC0DAF0C5
:100BD0005CC0D9F05BC0D8F062EC01F008E346C01D
:100BE0005EF045C05DF044C05CF043C05BF076C091
:100BF000D7F075C0D6F074C0D5F073C0D4F046C03D
:100C0000DBF045C0DAF044C0D9F043C0D8F062EC64
:100C100001F008E346C076F045C075F044C074F0BA
:100C200043C073F0D88246C0DBF045C0DAF044C060
:100C3000D9F043C0D8F05EC0DFF05DC0DEF05CC02C
:100C4000DDF05BC0DCF09DEC01F003C0CDF002C034
:100C5000CCF001C0CBF000C0CAF0A4DC03C0BBF0F4
:100C600002C0BAF001C0B9F000C0B8F0BBC0CDF00E
:100C7000BAC0CCF0B9C0CBF0B8C0CAF0B2DC03C087
:100C8000D7F002C0D6F001C0D5F000C0D4F0DB6BC5
:100C9000DA6B7A0ED96F880ED86F3CEC00F003C087
:100CA000CDF002C0CCF001C0CBF000C0CAF07ADCBD
:100CB00003C0BBF002C0BAF001C0B9F000C0B8F088
:100CC000D88276C0DBF075C0DAF074C0D9F073C09A
:100CD000D8F05EC0DFF05DC0DEF05CC0DDF05BC070
:100CE000DCF09DEC01F003C0CDF002C0CCF001C0FF
:100CF000CBF000C0CAF056DC03C0BFF002C0BEF0AB
:100D000001C0BDF000C0BCF0BBC0CDF0BAC0CCF09B
:100D1000B9C0CBF0B8C0CAF064DC03C0C7F002C0F1
:100D2000C6F001C0C5F000C0C4F0BFC0CDF0BEC069
:100D3000CCF0BDC0CBF0BCC0CAF053DCC7C0CDF016
:100D4000C6C0CCF0C5C0CBF0C4C0CAF003C0D1F05F
:100D500002C0D0F001C0CFF000C0CEF0B5EC00F082
:100D600003C0C3F002C0C2F001C0C1F000C0C0F0B7
:100D7000C3C0D7F0C2C0D6F0C1C0D5F0C0C0D4F057
:100D80004ADC02C0D9F001C0D8F021EC00F003C069
:100D900046F002C045F001C044F000C043F005C079
:100DA000D9F004C0D8F021EC00F046C0D7F045C01F
:100DB000D6F044C0D5F043C0D4F003C0DBF002C08D
:100DC000DAF001C0D9F000C0D8F062EC01F004E321
:100DD000466A456A446A436A120046C0D7F045C075
:100DE000D6F044C0D5F043C0D4F0DB6BDA6BD96BDE
:100DF000800ED86F3CEC00F0D89242C0DBF041C0CE
:100E0000DAF040C0D9F03FC0D8F003C0DFF002C034
:100E1000DEF001C0DDF000C0DCF09DEC01F003C0AD
:100E2000B7F002C0B6F001C0B5F000C0B4F03EC0EB
:100E3000D7F03DC0D6F03CC0D5F03BC0D4F0DB6B62
:100E4000DA6B400ED96F800ED86F3CEC00F0D89270
:100E5000B7C0DBF0B6C0DAF0B5C0D9F0B4C0D8F096
:100E600003C0DFF002C0DEF001C0DDF000C0DCF046
:100E70009DEC01F003C0B7F002C0B6F001C0B5F0C0
:100E800000C0B4F03AC0D7F039C0D6F038C0D5F0C1
:100E900037C0D4F0DB6BDA6BD96B810ED86F3CECCA
:100EA00000F0D892B7C0DBF0B6C0DAF0B5C0D9F028
:100EB000B4C0D8F003C0DFF002C0DEF001C0DDF046
:100EC00000C0DCF09DEC01F003C0B7F002C0B6F04A
:100ED00001C0B5F000C0B4F036C0D7F035C0D6F0D0
:100EE00034C0D5F033C0D4F0DB6BDA6B200ED96F91
:100EF000810ED86F3CEC00F0D892B7C0DBF0B6C0E2
:100F0000DAF0B5C0D9F0B4C0D8F003C0DFF002C049
:100F1000DEF001C0DDF000C0DCF09DEC01F003C0AC
:100F2000B7F002C0B6F001C0B5F000C0B4F032C0F6
:100F3000D7F031C0D6F030C0D5F02FC0D4F0DB6B85
:100F4000DA6B400ED96F810ED86F3CEC00F0D8926E
:100F5000B7C0DBF0B6C0DAF0B5C0D9F0B4C0D8F095
:100F600003C0DFF002C0DEF001C0DDF000C0DCF045
:100F70009DEC01F003C07EF002C07DF001C07CF06A
:100F800000C07BF0D89242C0DBF041C0DAF040C034
:100F9000D9F03FC0D8F046C0DFF045C0DEF044C015
:100FA000DDF043C0DCF09DEC01F003C0B7F002C0FF
:100FB000B6F001C0B5F000C0B4F0D89203C0DBF0C9
:100FC00002C0DAF001C0D9F000C0D8F03EC0DFF0B6
:100FD0003DC0DEF03CC0DDF03BC0DCF09DEC01F03C
:100FE00003C0B7F002C0B6F001C0B5F000C0B4F065
:100FF000D89203C0DBF002C0DAF001C0D9F000C023
:10100000D8F03AC0DFF039C0DEF038C0DDF037C0CC
:10101000DCF09DEC01F003C0B7F002C0B6F001C0F7
:10102000B5F000C0B4F0D89203C0DBF002C0DAF033
:1010300001C0D9F000C0D8F036C0DFF035C0DEF016
:1010400034C0DDF033C0DCF09DEC01F003C0B7F03C
:1010500002C0B6F001C0B5F000C0B4F0D89203C031
:10106000DBF002C0DAF001C0D9F000C0D8F032C025
:10107000DFF031C0DEF030C0DDF02FC0DCF09DECE1
:1010800001F003C082F002C081F001C080F000C016
:101090007FF07EC0CDF07DC0CCF07CC0CBF07BC0BB
:1010A000CAF082C0D1F081C0D0F080C0CFF07FC044
:1010B000CEF0B5EC00F003C086F002C085F001C0B0
:1010C00084F000C083F086C0D7F085C0D6F084C01D
:1010D000D5F083C0D4F0AAC0DBF0A9C0DAF0A8C074
:1010E000D9F0A7C0D8F062EC01F013E2A6C0D7F0A7
:1010F000A5C0D6F0A4C0D5F0A3C0D4F086C0DBF064
:1011000085C0DAF084C0D9F083C0D8F062EC01F079
:1011100009E38AC086F089C085F088C084F087C062
:1011200083F00AD086C08AF085C089F084C088F038
:1011300083C087F00D6A0C6AD88286C0DBF085C058
:10114000DAF084C0D9F083C0D8F07AC0DFF079C07B
:10115000DEF078C0DDF077C0DCF09DEC01F003C07C
:101160008EF002C08DF001C08CF000C08BF0D892E0
:1011700092C0DBF091C0DAF090C0D9F08FC0D8F007
:101180009EC0DFF09DC0DEF09CC0DDF09BC0DCF0B7
:101190009DEC01F003C092F002C091F001C090F00C
:1011A00000C08FF0D8828EC0DBF08DC0DAF08CC02A
:1011B000D9F08BC0D8F09EC0DFF09DC0DEF09CC09F
:1011C000DDF09BC0DCF09DEC01F003C096F002C0A6
:1011D00095F001C094F000C093F0AFC0D7F0AEC05E
:1011E000D6F0ADC0D5F0ACC0D4F08EC0DBF08DC071
:1011F000DAF08CC0D9F08BC0D8F03CEC00F003C022
:10120000B7F002C0B6F001C0B5F000C0B4F0B3C092
:10121000D7F0B2C0D6F0B1C0D5F0B0C0D4F096C00F
:10122000DBF095C0DAF094C0D9F093C0D8F03CEC74
:1012300000F0D892B7C0DBF0B6C0DAF0B5C0D9F094
:10124000B4C0D8F003C0DFF002C0DEF001C0DDF0B2
:1012500000C0DCF09DEC01F003C09AF002C099F0F0
:1012600001C098F000C097F08EC09EF08DC09DF038
:101270008CC09CF08BC09BF0FDEF10F0D76BD66B51
:10128000D56BD46B9AC0DBF099C0DAF098C0D9F076
:1012900097C0D8F062EC01F053E3A2C0D9F0A1C02E
:1012A000D8F021EC00F09AC0D7F099C0D6F098C0E1
:1012B000D5F097C0D4F003C0DBF002C0DAF001C073
:1012C000D9F000C0D8F03CEC00F003C0D7F002C069
:1012D000D6F001C0D5F000C0D4F00BEC03F002C092
:1012E000A0F001C09FF09F51065C086EA051075806
:1012F000096E09C002F008C001F002320132023268
:101300000132023201C0BBFF02320230300B006EEC
:10131000BA50CF0B0010BA6E07C002F006C001F041
:101320000232013202320132023201C0BEFF023209
:101330000230300B006EBD50CF0B0010BD6E79D067
:101340009AC0D7F099C0D6F098C0D5F097C0D4F025
:10135000DB6BDA6BD96BD86B62EC01F06AE3D76BAD
:10136000D66B800ED56F7F0ED46F9AC0DBF099C01C
:10137000DAF098C0D9F097C0D8F03CEC00F003C088
:101380009AF002C099F001C098F000C097F0A2C096
:10139000D9F0A1C0D8F021EC00F09AC0D7F099C0E4
:1013A000D6F098C0D5F097C0D4F003C0DBF002C0EF
:1013B000DAF001C0D9F000C0D8F03CEC00F003C076
:1013C000D7F002C0D6F001C0D5F000C0D4F00BECCD
:1013D00003F002C0A0F001C09FF09F51065C0A6EAE
:1013E000A05107580B6E0BC002F00AC001F0023288
:1013F000013202320132023201C0BEFF023202303B
:10140000300B006EBD50CF0B0010BD6E07C002F058
:1014100006C001F00232013202320132023201C052
:10142000BBFF02320230300B006EBA50CF0B0010FF
:10143000BA6EFFEF10F00900F5520DE0F6CFACF0F8
:10144000F7CFADF0F5509EA8FED7AD6EACC0F6FF5D
:10145000ADC0F7FFF0D712009EA8FED7AD6E120008
:10146000B3C011F0B2C010F0B1C00FF0B0C00EF0B8
:101470001B6A11520DE11050000833E2FF0A08E127
:101480000F5085082EE2FF0A03E10E509F0829E263
:1014900011520DE11050000814E2FF0A08E10F504C
:1014A00085080FE2FF0A03E10E509F080AE2A00E32
:1014B0000E5E860E0F5A010E105A000E115A1B2A8C
:1014C000E7D71B50090801E21B6A036A1B501C0F77
:1014D000E96E000E0320EA6EEFCFB4F0B451BCDF2A
:1014E0001B6A11520AE1105208E10F50260850E21F
:1014F000FF0A03E10E500F084BE211520AE11052AD
:1015000008E10F5026080EE2FF0A03E10E500F0813
:1015100009E2100E0E5E270E0F5A000E105A115AD5
:101520001B2AEBD71B50090801E21B6A036A1B50F8
:101530001C0FE96E000E0320EA6EEFCFB4F0B45139
:101540008BDF1B6A11520AE1105208E10F500208AA
:101550000EE2FF0A03E10E50E70809E2E80E0E5E14
:10156000030E0F5A000E105A115A1B2AEBD71B50AC
:10157000090801E21B6A036A1B501C0FE96E000E8A
:101580000320EA6EEFCFB4F0B45166DF1B6A31D0AE
:1015900011520AE1105208E10F5002082AE2FF0A34
:1015A00003E10E50E70825E211520AE1105208E16A
:1015B0000F5002080EE2FF0A03E10E50E70809E2AD
:1015C000E80E0E5E030E0F5A000E105A115A1B2A17
:1015D000EBD71B50090801E21B6A036A1B501C0F62
:1015E000E96E000E0320EA6EEFCFB4F0B45134DFA1
:1015F0001B6A115207E1105205E10F5203E10E5030
:10160000630808E2640E0E5E000E0F5A105A115A5B
:101610001B2AEFD71B50090801E21B6A036A1B5003
:101620001C0FE96E000E0320EA6EEFCFB4F0B45148
:1016300013DF1B6A115207E1105205E10F5203E15B
:101640000E50090808E20A0E0E5E000E0F5A105ADC
:10165000115A1B2AEFD71B50090801E21B6A036AC3
:101660001B501C0FE96E000E0320EA6EEFCFB4F0A2
:10167000B451F2DE1B6A115207E1105205E10F521C
:1016800003E10E50000808E2010E0E5E000E0F5A34
:10169000105A115A1B2AEFD71B50090801E21B6A86
:1016A000036A1B501C0FE96E000E0320EA6EEFCF99
:1016B000B4F0B451D1DE1B6A1200D391C7C0CCF094
:1016C000C6C0CBF0C5C0CAF0C4C0C9F0C7C0D7F00F
:1016D000C6C0D6F0C5C0D5F0C4C0D4F0DB6BDA6BA1
:1016E000D96BD86B62EC01F004E3D381CA51800A54
:1016F000CA6FCCC0D7F0CBC0D6F0CAC0D5F0C9C035
:10170000D4F0DB6BDA6BD96B8E0ED86F62EC01F024
:1017100001E219E1CCC0D7F0CBC0D6F0CAC0D5F0F9
:10172000C9C0D4F00BEC03F002C0D9F001C0D8F06E
:1017300021EC00F003C0D0F002C0CFF001C0CEF029
:1017400000C0CDF0C9D0CCC0D7F0CBC0D6F0CAC055
:10175000D5F0C9C0D4F0800EDB6F960EDA6F180E8C
:10176000D96F960ED86F62EC01F0D8A0ADD0CCC086
:10177000D7F0CBC0D6F0CAC0D5F0C9C0D4F0DB6B6F
:10178000DA6BD96B700ED86F3CEC00F003C0D7F069
:1017900002C0D6F001C0D5F000C0D4F00BEC03F0CD
:1017A00002C0D2F001C0D1F0CCC0D7F0CBC0D6F08F
:1017B000CAC0D5F0C9C0D4F0DB6BDA6BD96B700E40
:1017C000D86F3CEC00F003C0D7F002C0D6F001C0E7
:1017D000D5F000C0D4F0D2C0D9F0D1C0D8F021ECFF
:1017E00000F0D882D7C0DBF0D6C0DAF0D5C0D9F08F
:1017F000D4C0D8F003C0DFF002C0DEF001C0DDF0DD
:1018000000C0DCF09DEC01F0D76BD66BD56B8E0E73
:10181000D46F03C0DBF002C0DAF001C0D9F000C021
:10182000D8F03CEC00F003C0CCF002C0CBF001C01B
:10183000CAF000C0C9F0D2C0D9F0D1C0D8F021ECB4
:1018400000F0D76BD66BD56B8E0ED46F03C0DBF078
:1018500002C0DAF001C0D9F000C0D8F03CEC00F0D2
:1018600003C0D0F002C0CFF001C0CEF000C0CDF078
:10187000CCC0D7F0CBC0D6F0CAC0D5F0C9C0D4F028
:101880000BEC03F002C0D9F001C0D8F021EC00F05D
:10189000D892D0C0DBF0CFC0DAF0CEC0D9F0CDC046
:1018A000D8F003C0DFF002C0DEF001C0DDF000C000
:1018B000DCF09DEC01F003C0D0F002C0CFF001C01D
:1018C000CEF000C0CDF008D0CCC0D0F0CBC0CFF06F
:1018D000CAC0CEF0C9C0CDF0CCC0D7F0CBC0D6F0D6
:1018E000CAC0D5F0C9C0D4F00BEC03F002C0D9F0E7
:1018F00001C0D8F021EC00F0D882CCC0DBF0CBC026
:10190000DAF0CAC0D9F0C9C0D8F003C0DFF002C015
:10191000DEF001C0DDF000C0DCF09DEC01F003C0A2
:10192000CCF002C0CBF001C0CAF000C0C9F0D3A116
:1019300003D0CE51800ACE6FCCC0D7F0CBC0D6F04A
:10194000CAC0D5F0C9C0D4F0DB6BDA6BD96BD86BE9
:1019500062EC01F038E0D3A11AD0C85318E1D88264
:10196000D0C0DBF0CFC0DAF0CEC0D9F0CDC0D8F017
:10197000DF6BDE6BDD6B7F0EDC6F9DEC01F003C077
:10198000D0F002C0CFF001C0CEF000C0CDF0D3B196
:101990001AD0C82D18D0D892D0C0DBF0CFC0DAF062
:1019A000CEC0D9F0CDC0D8F0DF6BDE6BDD6B7F0E23
:1019B000DC6F9DEC01F003C0D0F002C0CFF001C09D
:1019C000CEF000C0CDF0C7C0D7F0C6C0D6F0C5C0BD
:1019D000D5F0C4C0D4F0DB6BDA6BD96BD86B62EC9A
:1019E00001F004E1D06BCF6BCE6BCD6BCDC000F0BE
:1019F000CEC001F0CFC002F0D0C003F01200C3C0CF
:101A0000C7F0C2C0C6F0C1C0C5F0C0C0C4F0010E6E
:101A1000C86F53DE36EF0DF0C3C0C7F0C2C0C6F0CA
:101A2000C1C0C5F0C0C0C4F0C86B47DE40EF0DF0C8
:101A3000BDC003F0BCC0BEF0BDC0BFF0BBC0D7F09E
:101A4000BAC0D6F0B9C0D5F0B8C0D4F0DB6BDA6B51
:101A5000D96BD86B62EC01F00AE3BBC0C3F0BAC02B
:101A6000C2F0B9C0C1F0B8C0C0F0C9D709D0BBC07E
:101A7000C3F0BAC0C2F0B9C0C1F0B8C0C0F0CCD792
:101A8000BFC0EAFFBEC0E9FF00C0EFFF01C0ECFF2E
:101A900002C0ECFF03C0ECFFBDC003F0BCC0E9FF17
:101AA000BDC0EAFFEFCF00F0ECCF01F0ECCF02F0C9
:101AB000ECCF03F0EACFBFF0E9CFBEF0D882BBC0D5
:101AC000DBF0BAC0DAF0B9C0D9F0B8C0D8F003C0C2
:101AD000DFF002C0DEF001C0DDF000C0DCF09DEC04
:101AE00001F0BFC0EAFFBEC0E9FF97EF0DF0AFC045
:101AF000D7F0AEC0D6F0ADC0D5F0ACC0D4F0DB6B43
:101B0000DA6BD96BD86B62EC01F005E32D0EA4DC27
:101B1000AD51800AAD6FAFC0BBF0AEC0BAF0ADC082
:101B2000B9F0ACC0B8F0BD6BB40EBC6F81D703C0C8
:101B3000B3F002C0B2F001C0B1F000C0B0F0B7C065
:101B4000CDF0B6C0CCF0B5C0CBF0B4C0CAF0D2EC8A
:101B500002F003C011F002C010F001C00FF000C08D
:101B60000EF01B6A11520AE1105208E10F502608CC
:101B700050E2FF0A03E10E5010084BE211520AE155
:101B8000105208E10F5026080EE2FF0A03E10E5042
:101B90000F0809E2100E0E5E270E0F5A000E105AA3
:101BA000115A1B2AEBD71B50090801E21B6A036A72
:101BB0001B501C0FE96E000E0320EA6EEFCFB8F049
:101BC000B8514ADC1B6A11520AE1105208E10F5069
:101BD00002080EE2FF0A03E10E50E70809E2E80EF0
:101BE0000E5E030E0F5A000E105A115A1B2AEBD725
:101BF0001B50090801E21B6A036A1B501C0FE96EA7
:101C0000000E0320EA6EEFCFB8F0B85125DC1B6A56
:101C100032D011520AE1105208E10F5002082BE2B3
:101C2000FF0A03E10E50E70826E211520AE11052C2
:101C300008E10F5002080EE2FF0A03E10E50E70828
:101C400009E2E80E0E5E030E0F5A000E105A115AEA
:101C50001B2AEBD71B50090801E21B6A036A1B50C1
:101C60001C0FE96E000E0320EA6EEFCFB8F0B851FA
:101C70002CEC0AF01B6A115207E1105205E10F52D9
:101C800003E10E50630808E2640E0E5E000E0F5A68
:101C9000105A115A1B2AEFD71B50090801E21B6A80
:101CA000036A1B501C0FE96E000E0320EA6EEFCF93
:101CB000B8F0B8512CEC0AF01B6A115207E110522F
:101CC00005E10F5203E10E50090808E20A0E0E5E0C
:101CD000000E0F5A105A115A1B2AEFD71B50090831
:101CE00001E21B6A036A1B501C0FE96E000E032001
:101CF000EA6EEFCFB8F0B8512CEC0AF01B6A115223
:101D000007E1105205E10F5203E10E50000808E20E
:101D1000010E0E5E000E0F5A105A115A1B2AEFD7F1
:101D20001B50090801E21B6A036A1B501C0FE96E75
:101D3000000E0320EA6EEFCFB8F0B8512CEC0AF099
:101D40001B6A2E0E2CEC0AF0CD0ED76FCC0ED66F80
:101D50004C0ED56F7B0ED46FB3C0DBF0B2C0DAF09F
:101D6000B1C0D9F0B0C0D8F062EC01F001E21DE1E1
:101D7000D882B3C0DBF0B2C0DAF0B1C0D9F0B0C0E5
:101D8000D8F0CD0EDF6FCC0EDE6F4C0EDD6F7B0E0C
:101D9000DC6F9DEC01F003C0B3F002C0B2F001C0F3
:101DA000B1F000C0B0F01B2ACFD71B50090801E2E8
:101DB0001B6A036A1B501C0FE96E000E0320EA6EBB
:101DC000EFCFB8F0B8512CEC0AF01B6A0A0ED76FAF
:101DD000D70ED66F230ED56F780ED46FB3C0DBF05D
:101DE000B2C0DAF0B1C0D9F0B0C0D8F062EC01F006
:101DF00001E21DE1D882B3C0DBF0B2C0DAF0B1C0BD
:101E0000D9F0B0C0D8F00A0EDF6FD70EDE6F230E08
:101E1000DD6F780EDC6F9DEC01F003C0B3F002C003
:101E2000B2F001C0B1F000C0B0F01B2ACFD71B50F8
:101E3000090801E21B6A036A1B501C0FE96E000EC1
:101E40000320EA6EEFCFB8F0B8512CEC0AF01B6A11
:101E50001200040EF66E000EF76E1BEC0AF042C084
:101E6000CDF041C0CCF040C0CBF03FC0CAF0D2ECC6
:101E700002F003C0AFF002C0AEF001C0ADF000C090
:101E8000ACF003C0B3F002C0B2F001C0B1F000C0CA
:101E9000B0F030EC0AF0200E2CEC0AF00A0EF66ED0
:101EA000000EF76E1BEC0AF046C0CDF045C0CCF03A
:101EB00044C0CBF043C0CAF0D2EC02F003C0AFF094
:101EC00002C0AEF001C0ADF000C0ACF003C0B3F092
:101ED00002C0B2F001C0B1F000C0B0F030EC0AF0C6
:101EE000200E2CEC0AF0100EF66E000EF76E1BECB6
:101EF0000AF03EC0CDF03DC0CCF03CC0CBF03BC0C2
:101F0000CAF0D2EC02F003C0AFF002C0AEF001C0E4
:101F1000ADF000C0ACF003C0B3F002C0B2F001C03D
:101F2000B1F000C0B0F030EC0AF0200E2CEC0AF05A
:101F3000160EF66E000EF76E1BEC0AF03AC0CDF0EE
:101F400039C0CCF038C0CBF037C0CAF0D2EC02F0C8
:101F500003C0AFF002C0AEF001C0ADF000C0ACF005
:101F600003C0B3F002C0B2F001C0B1F000C0B0F0E5
:101F700030EC0AF0200E2CEC0AF01C0EF66E000E6F
:101F8000F76E1BEC0AF036C0CDF035C0CCF034C093
:101F9000CBF033C0CAF0D2EC02F003C0AFF002C005
:101FA000AEF001C0ADF000C0ACF003C0B3F002C0B1
:101FB000B2F001C0B1F000C0B0F030EC0AF0200E79
:101FC0002CEC0AF0220EF66E000EF76E1BEC0AF0F7
:101FD00032C0CDF031C0CCF030C0CBF02FC0CAF051
:101FE000D2EC02F003C0AFF002C0AEF001C0ADF021
:101FF00000C0ACF003C0B3F002C0B2F001C0B1F059
:1020000000C0B0F030EC0AF0200E2CEC0AF0280EE4
:10201000F66E000EF76E1BEC0AF0B36BB26B09C0E4
:10202000B1F008C0B0F030EC0AF0200E2CEC0AF051
:102030002E0EF66E000EF76E1BEC0AF0B36BB26B51
:102040000BC0B1F00AC0B0F030EC0AF0200E2CEC5E
:102050000AF0340EF66E000EF76E1BEC0AF08EC01E
:10206000AFF08DC0AEF08CC0ADF08BC0ACF03FDDFA
:10207000200E2CEC0AF03C0EF66E000EF76E1BECF8
:102080000AF086C0AFF085C0AEF084C0ADF083C06A
:10209000ACF02DDD0D0E2CEC0AF00A0E2CEC0AF043
:1020A00000EF11F0F86AD09EB886080EAF6E020EEF
:1020B000B06EA60EAC6E900EAB6E056A640E046E2A
:1020C000076AE20E066E0D6A0C6A7A6B796B600E17
:1020D000786F800E776FA26B320EA16FA66BA56B27
:1020E000200EA46F810EA36FAA6BA96BA86B800E44
:1020F000A76FAB91C150C00B0F09C16E070EB46E34
:10210000300E1C6E310E1D6E320E1E6E330E1F6EA3
:10211000340E206E350E216E360E226E370E236E73
:10212000380E246E390E256EB886080EAF6E020E7C
:10213000B06EA60EAC6E900EAB6EC150C00B060911
:10214000C16EC050C00BC06EC08EC280000E0609AA
:10215000CA6EFF0ECB6E94948B940C0EBD6E94924F
:102160008B92BA6EBE6ABD50CF0BBD6EBB6ABA50C1
:10217000CF0BBA6EC40ED56EF28AC00EF2129398CF
:102180008A882A6A2A50050820E32A50040DF35051
:10219000036A5F0FE96E000E0320EA6E870EEF6E92
:1021A0007A0EEC6EEC6AEC6A2A50040DF350036A66
:1021B000470FE96E000E0320EA6E870EEF6E7A0E6F
:1021C000EC6EEC6AEC6A2A2ADDD727EC03F09380E8
:1021D00081B003D0AB8193988A98ABA112D027EC41
:1021E00003F0AF6BAE6BAD6B800EAC6FB36BB26BCD
:1021F000B16B7F0EB06FEDEF06F03EEF09F029D620
:06220000ECD7E3D7030058
:020000040030CA
:0E00000004CC381E008781000FC00FE00F40B7
:00000001FF
;PIC18F2550
;CRC=C229  CREATED="07-jul-17 00:06"
