:10000000EDEF07F08E0E006E91C001F090C002F08F
:10001000036A015209E102C001F0026A080E005EA3
:10002000015202E1006A08D0D89001BE04D0023625
:1000300001360006F9D7019E12009051D8B471D054
:10004000006E9451D8B46DD0002604E3810E0026D2
:1000500068E204D07F0E005E64E363E091C098F034
:100060009551981B918F958F93519703F4CF9AF0E8
:1000700092519603F4CF03F0F3CF99F09703F35026
:100080009A27F4509923000E032293519603F350BC
:100090009A27F4509923000E026A032202229151FA
:1000A0009703F3509927F4500322000E0222915136
:1000B0009603F3500326F4500222000E016A012237
:1000C00093519503F3509927F4500322000E022216
:1000D000012292519503F3500326F4500222000EA0
:1000E000012291519503F3500226F4500122002A77
:1000F00001BE05D099370336023601360006000EE0
:1001000099AF0AD0032A02220122015005E10250D0
:1001100003E1035001E1002A98BF018E98AF019ED0
:1001200004D0006A016A026A036A12009251D8B4CC
:10013000A5D09E6F9651D8B4A1D09E5F05E37F0EE7
:100140009E27D8B09BD006D0810E9E5FD8A096D0B7
:10015000D8B494D09EC000F0016A026A036A9D6B15
:1001600093C09CF09C8F94C09BF095C09AF0190EA0
:100170009E6F99519A5F0DE2010E9B5F0AE29C5FB0
:1001800008E29D5F06E29D2B9C2B9B2B99519A27A1
:1001900028D098519B5F12E2010E9C5F0FE29D5F99
:1001A0000DE29D2B9C2B98519B2799519A2719E37F
:1001B0009B2B17E19C2B15E19D2B13D097518009A8
:1001C0009C5F0EE2010E9D5F0BE29D2B9751800913
:1001D0009C2798519B27E9E39C2BE7E19D2BE5D7D2
:1001E00003809E2F01D00BD0D8909A379B379C3735
:1001F0009D37D8900336023601369F37BAD79FA174
:1002000006D0D8900132023203329F3302D000066A
:1002100035E09FBF1ED0D8909A379B379C379D37CB
:1002200099519A5F07E2010E9B5F04E29C5F02E234
:100230009D5F1AE398519B5F05E2010E9C5F02E20D
:100240009D5F12E3975180099C5F03E2010E9D5F61
:100250000BE3032A09E1022A07E1012A05E1002A4A
:100260000DE001320232033293C09EF097519E1B83
:100270009EAF02D0018E06D0019E04D0006A016AB2
:10028000026A036A120091C098F09551981B98AFCA
:1002900005D0D894D89091BFD8802FD091C098F035
:1002A00094C099F09051995F06E098AF26D0D8504D
:1002B000010AD86E22D095C099F09151995F06E05D
:1002C00098AF1BD0D850010AD86E17D096C099F0BD
:1002D0009251995F06E098AF10D0D850010AD86EBD
:1002E0000CD097C099F09351995F06E098AF05D074
:1002F000D850010AD86E01D0D89012008E0E006E30
:100300008E51005E8FC002F090C001F0028E00524C
:1003100009E0D890025202E1015204E002320132B7
:10032000002EF7D78FAF05D0011E021E012AD8B4C8
:10033000022A1200800ED8B2971B9C6B9D6B93C053
:100340009BF097519B1B9251D8B4DCD09A6F006EF2
:100350009651D8B4E0D09A5FD8B481D03DE397C02D
:10036000A0F0A08F98C09FF099C09EF09D6BD89090
:10037000A0339F339E339D339A2FF8D79BAF03D082
:100380009C81DDD09C919A919C89EA6A950EE96ED8
:10039000E9D09C999BBF0AD09AA113D0A0339F3378
:1003A0009E339D33002AD8B4C5D00BD0A0BF0CD04B
:1003B000D8909D379E379F37A0370006D8B4BAD063
:1003C000F5D79C8D6BD09C9D93C09BF093AF02D0D2
:1003D000A08FA9D0A09FA7D096C09AF096C000F099
:1003E00092519A5F93C0A0F0A08F94C09FF095C0E7
:1003F0009EF09D6BD890A0339F339E339D339A2FF0
:10040000F8D79BAF03D09C839AD09C939A919C8BF6
:10041000EA6A990EE96EA6D09C9B9BBF0AD09AA16E
:1004200013D0A0339F339E339D33002AD8B482D09B
:100430000BD0A0BF0CD0D8909D379E379F37A037E8
:100440000006D8B477D0F5D79C8F28D09C9F97C052
:100450009BF097AF02D0A08F66D0A09F64D097C0CA
:10046000A0F0A08F98C09FF099C09EF09BAF04D0E1
:10047000A09F9C8564D09C959D6B9A91EA6A950E8D
:10048000E96E70D09BBF1CD093C09BF09AA106D0A0
:10049000A0339F339E339D33002A4CE09DAF0BD099
:1004A0009E2B09E19F2B07E1A02B05E1A0339F3391
:1004B0009E33002A3FE09CBD86D79CBFC7D71CD087
:1004C000800EA01BA0AF04D03AD097C09BF00AD0FA
:1004D00093C09BF0A05306E19F5304E19E5302E1B9
:1004E000006A21D0A0BF08D0D8909D379E379F3793
:1004F000A037002EF7D71ED09BAF02D0A08F13D00D
:10050000A09F11D096C000F097C0A0F098C09FF0B7
:1005100099C09EF008D092C000F093C0A0F094C0A3
:100520009FF095C09EF0A0C001F09FC002F09EC059
:1005300003F034D0006A016A026A036A2FD09D6B0F
:100540009E1F9F1FA01F9D1F9D2B05E19E2B03E15A
:100550009F2B01E1A02B9CB115D79CB356D79CB51E
:100560008AD7B3D7EF509E2705E39F2B03E1A02B3B
:10057000D8B49A81ED52EF509F2703E3A02BD8B453
:100580009A81ED52EF50EFBE01D0800AA027D8B07B
:100590009A819CB9FED69CBB3FD774D7120092516A
:1005A000B608926F036A93C096F0938FD8909333F6
:1005B000943395330332023201320032922FF6D750
:1005C00096AF0BD0001E011E021E031E002AD8B4D7
:1005D000012AD8B4022AD8B4032A1200B60E006E3B
:1005E000036A026A016A905191119211931102E11A
:1005F000006A0DD0D89001BE09D09037913792375C
:100600009337033602360136002EF4D7019E1200CE
:10061000266A26500808D8A0DFD12634006E00369E
:10062000FC0E0016C250C30B0010C26EC282C2B2D2
:10063000FED7C4CF03F0C3CF90F0C4CF91F0E2DC7B
:1006400003C02AF002C029F001C028F000C027F042
:100650002650040DF350036A2B0FE96E000E0320A1
:10066000EA6E2AC093F029C092F028C091F027C00A
:1006700090F0976B966B7A0E956F870E946FDDDC1A
:1006800003C091F002C090F001C08FF000C08EF066
:1006900003C095F002C094F001C093F000C092F046
:1006A000996B986B976B890E966F40DD00C0EFFFDA
:1006B00001C0ECFF02C0ECFF03C0ECFF2650040DAC
:1006C000F350036A2B0FE96E000E0320EA6EEFCFA2
:1006D0008CF0ECCF8DF0ECCF8EF0ECCF8FF0036A86
:1006E0002650740FE96E000E0320EA6EEF50916BF6
:1006F000906F88DC8FC093F08EC092F08DC091F027
:100700008CC090F003C097F002C096F001C095F045
:1007100000C094F0B8DD2AE3036A2650740F016E1E
:10072000000E032201C08CF003C08DF02650040D92
:10073000F350036A2B0FE96E000E0320EA6EEFCF31
:1007400000F0ECCF01F0ECCF02F0ECCF03F003C0EF
:1007500091F002C090F001C08FF000C08EF0CEDDAD
:100760008DC0EAFF8CC0E9FF01C0EFFF2650040DE9
:10077000F350036A2B0FE96E000E0320EA6EEFCFF1
:100780008CF0ECCF8DF0ECCF8EF0ECCF8FF0036AD5
:1007900026507A0FE96E000E0320EA6EEF50916B3F
:1007A000906F30DC03C093F002C092F001C091F072
:1007B00000C090F08FC097F08EC096F08DC095F07D
:1007C0008CC094F060DD2AE3036A26507A0F016E34
:1007D000000E032201C08CF003C08DF02650040DE2
:1007E000F350036A2B0FE96E000E0320EA6EEFCF81
:1007F00000F0ECCF01F0ECCF02F0ECCF03F003C03F
:1008000091F002C090F001C08FF000C08EF076DD54
:100810008DC0EAFF8CC0E9FF01C0EFFF2650040D38
:10082000F350036A2B0FE96E000E0320EA6EEFCF40
:100830008CF0ECCF8DF0ECCF8EF0ECCF8FF0036A24
:100840002650740FE96E000E0320EA6EEF50916B94
:10085000906F02EC00F0EACF91F0E9CF90F0D882EF
:100860008FC095F08EC094F08DC093F08CC092F044
:1008700003C099F002C098F001C097F000C096F054
:1008800059DD91C0EAFF90C0E9FF03C095F002C0B6
:1008900094F001C093F000C092F081DE03C083F0B9
:1008A00002C082F001C081F000C080F083C093F0EC
:1008B00082C092F081C091F080C090F08FDE03C0C2
:1008C00093F002C092F001C091F000C090F0976BDD
:1008D000966B7A0E956F880E946F1DEC00F003C036
:1008E00095F002C094F001C093F000C092F057DE82
:1008F00003C083F002C082F001C081F000C080F02C
:10090000036A26507A0FE96E000E0320EA6EEFCFDD
:100910008CF0036A2650740FE96E000E0320EA6E15
:10092000EF508C5D846F856B866B876B83C093F013
:1009300082C092F081C091F080C090F04FDE03C081
:100940008FF002C08EF001C08DF000C08CF087C027
:1009500093F086C092F085C091F084C090F03EDEA6
:100960008FC095F08EC094F08DC093F08CC092F043
:1009700003C099F002C098F001C097F000C096F053
:1009800096EC00F003C08BF002C08AF001C089F041
:1009900000C088F02650040DF350036A2B0FE96E57
:1009A000000E0320EA6E8BC091F08AC090F089C0DF
:1009B0008FF088C08EF0A2DC02C091F001C090F0F0
:1009C00002EC00F000C0EFFF01C0ECFF02C0ECFF42
:1009D00003C0ECFF262A1DD612004EC093F04DC076
:1009E00092F04CC091F04BC090F0976B966B956B6A
:1009F000800E946F1DEC00F0D8923EC095F03DC083
:100A000094F03CC093F03BC092F003C099F002C058
:100A100098F001C097F000C096F08CDC03C08FF016
:100A200002C08EF001C08DF000C08CF03AC093F08F
:100A300039C092F038C091F037C090F0976B966B48
:100A4000400E956F800E946F1DEC00F0D8928FC011
:100A500095F08EC094F08DC093F08CC092F003C0DE
:100A600099F002C098F001C097F000C096F062DCE7
:100A700003C08FF002C08EF001C08DF000C08CF07A
:100A800036C093F035C092F034C091F033C090F08E
:100A9000976B966B956B810E946F1DEC00F0D8925E
:100AA0008FC095F08EC094F08DC093F08CC092F002
:100AB00003C099F002C098F001C097F000C096F012
:100AC00039DC03C08FF002C08EF001C08DF000C091
:100AD0008CF032C093F031C092F030C091F02FC052
:100AE00090F0976B966B200E956F810E946F1DECB6
:100AF00000F0D8928FC095F08EC094F08DC093F026
:100B00008CC092F003C099F002C098F001C097F039
:100B100000C096F00FDC03C08FF002C08EF001C061
:100B20008DF000C08CF02EC093F02DC092F02CC040
:100B300091F02BC090F0976B966B400E956F810EE5
:100B4000946F1DEC00F0D8928FC095F08EC094F099
:100B50008DC093F08CC092F003C099F002C098F061
:100B600001C097F000C096F09AEC01F003C052F07B
:100B700002C051F001C050F000C04FF0D8923EC00A
:100B800095F03DC094F03CC093F03BC092F04EC055
:100B900099F04DC098F04CC097F04BC096F09AEC8D
:100BA00001F003C08FF002C08EF001C08DF000C0D4
:100BB0008CF0D89203C095F002C094F001C093F07D
:100BC00000C092F03AC099F039C098F038C097F060
:100BD00037C096F09AEC01F003C08FF002C08EF09F
:100BE00001C08DF000C08CF0D89203C095F002C017
:100BF00094F001C093F000C092F036C099F035C077
:100C000098F034C097F033C096F09AEC01F003C02E
:100C10008FF002C08EF001C08DF000C08CF0D89231
:100C200003C095F002C094F001C093F000C092F0B0
:100C300032C099F031C098F030C097F02FC096F0D4
:100C40009AEC01F003C08FF002C08EF001C08DF06D
:100C500000C08CF0D89203C095F002C094F001C09F
:100C600093F000C092F02EC099F02DC098F02CC0E7
:100C700097F02BC096F09AEC01F003C056F002C03A
:100C800055F001C054F000C053F052C095F051C06F
:100C900094F050C093F04FC092F056C099F055C0F8
:100CA00098F054C097F053C096F096EC00F003C053
:100CB0005AF002C059F001C058F000C057F0D88275
:100CC0005AC095F059C094F058C093F057C092F0B4
:100CD0004EC099F04DC098F04CC097F04BC096F0C4
:100CE0009AEC01F003C05EF002C05DF001C05CF060
:100CF00000C05BF0D89262C095F061C094F060C013
:100D000093F05FC092F06EC099F06DC098F06CC027
:100D100097F06BC096F09AEC01F003C062F002C04D
:100D200061F001C060F000C05FF0D8825EC095F055
:100D30005DC094F05CC093F05BC092F06EC099F01F
:100D40006DC098F06CC097F06BC096F09AEC01F013
:100D500003C066F002C065F001C064F000C063F03B
:100D600083C093F082C092F081C091F080C090F077
:100D70005EC097F05DC096F05CC095F05BC094F0EB
:100D80001DEC00F003C08FF002C08EF001C08DF0AA
:100D900000C08CF087C093F086C092F085C091F0BF
:100DA00084C090F066C097F065C096F064C095F07E
:100DB00063C094F01DEC00F0D8928FC095F08EC007
:100DC00094F08DC093F08CC092F003C099F002C0F3
:100DD00098F001C097F000C096F09AEC01F003C0C3
:100DE0008FF002C08EF001C08DF000C08CF08BC07F
:100DF00093F08AC092F089C091F088C090F062C0F0
:100E000097F061C096F060C095F05FC094F01DEC63
:100E100000F0D8928FC095F08EC094F08DC093F002
:100E20008CC092F003C099F002C098F001C097F016
:100E300000C096F09AEC01F003C06AF002C069F0BD
:100E400001C068F000C067F05EC06EF05DC06DF07C
:100E50005CC06CF05BC06BF065EF08F082518403FE
:100E6000F3CF01F0F4CF00F08503F3500026835157
:100E70008403F3500020026E64EF07F0936B926BD3
:100E8000916B906B6AC097F069C096F068C095F05E
:100E900067C094F043EC01F036E36AC091F069C09A
:100EA00090F068C08FF067C08EF07EEC01F002C059
:100EB00081F001C080F002C083F001C082F073C0F5
:100EC00085F072C084F0CAD702C071F001C070F022
:100ED00070510424066E71510520076E640EBB6EBE
:100EE00007C002F006C001F00232013202320132C4
:100EF000023201C0BEFF02320230300B006EBD5024
:100F0000CF0B0010BD6E6AC093F069C092F068C04C
:100F100091F067C090F0976B966B956B946B43EC78
:100F200001F059E3936B926B800E916F7F0E906F7F
:100F30006AC097F069C096F068C095F067C094F0F9
:100F40001DEC00F003C06AF002C069F001C068F057
:100F500000C067F073C091F072C090F002EC00F036
:100F60006AC093F069C092F068C091F067C090F0D9
:100F700003C097F002C096F001C095F000C094F055
:100F80001DEC00F003C091F002C090F001C08FF0A2
:100F900000C08EF07EEC01F002C071F001C070F074
:100FA00070510424086E71510520096E09C002F0C9
:100FB00008C001F00232013202320132023201C0B5
:100FC000BBFF02320230300B006EBA50CF0B001064
:100FD000BA6E640EBE6E66EF08F0F86AD09EB886F0
:100FE000080EAF6E020EB06EA60EAC6E900EAB6E1B
:100FF000056AC80E046E4E6A4D6A200E4C6E800E55
:101000004B6E6F91736B320E726FC150C00B0F0934
:10101000C16E070EB46E300E186E310E196E320EA0
:101020001A6E330E1B6E340E1C6E350E1D6E360E90
:101030001E6E370E1F6E380E206E390E216EB8866A
:10104000080EAF6E020EB06EA60EAC6E900EAB6EBA
:10105000C150C00B0609C16EC050C00BC06EC08E1F
:10106000C280000E0609CA6EFF0ECB6E94948B945C
:101070000C0EBD6E94928B92BA6EBE6ABD50CF0BB1
:101080001009BD6EBB6ABA50CF0B1009BA6EC40E00
:10109000D56EF28AC00EF21208EC03F0938081B094
:1010A00001D06F816FA113D008EC03F0330E836F72
:1010B000826F816F7F0E806F876B866B856B846F0D
:1010C0008B6B8A6B896B886B88D4D8D6EBD7E4D7C7
:0210D00003001B
:020000040030CA
:0E00000004CC381E008781000FC00FE00F40B7
:00000001FF
;PIC18F2550
;CRC=C8FC  CREATED="02-jul.-17 19:18"
